:0400000007EF00F016
:0A0008007C8215ED08F0CEEF10F039
:10100000004D4F5645202020200053544F502020A3
:10101000202000574149542E2E2E20004841525284
:091020005920555000256900001B
:10102A000600FACF37F0FBCF38F0F2A81FEF08F02E
:10103A0021EF08F02AEF08F0F2A226EF08F028EFD5
:10104A0008F02AEF08F003EC13F0F0A62FEF08F0EF
:10105A0031EF08F03AEF08F0F0A036EF08F038EF79
:10106A0008F03AEF08F0ECEC12F0F0A83FEF08F0C5
:10107A0041EF08F04AEF08F0F0A246EF08F048EF17
:10108A0008F04AEF08F0D5EC12F0F2A64FEF08F09C
:10109A0051EF08F06CEF08F0F2A056EF08F058EFA5
:1010AA0008F06CEF08F081A85DEF08F05FEF08F038
:1010BA006CEF08F01804D8A465EF08F067EF08F0A1
:1010CA006CEF08F0000E186E000ED8EC13F0F2A6C2
:1010DA0071EF08F073EF08F08EEF08F0F2A078EFE6
:1010EA0008F07AEF08F08EEF08F081B87FEF08F089
:1010FA0081EF08F08EEF08F01850D8A487EF08F0B7
:10110A0089EF08F08EEF08F0010E186E010ED8EC88
:10111A0013F0F2A693EF08F095EF08F0B0EF08F09D
:10112A00F2A09AEF08F09CEF08F0B0EF08F081AA5D
:10113A00A1EF08F0A3EF08F0B0EF08F01704D8A465
:10114A00A9EF08F0ABEF08F0B0EF08F0000E176E49
:10115A00000ECBEC13F0F2A6B5EF08F0B7EF08F0EB
:10116A00D2EF08F0F2A0BCEF08F0BEEF08F0D2EF21
:10117A0008F081BAC3EF08F0C5EF08F0D2EF08F023
:10118A001750D8A4CBEF08F0CDEF08F0D2EF08F053
:10119A00010E176E010ECBEC13F0F2A6D7EF08F092
:1011AA00D9EF08F0F4EF08F0F2A0DEEF08F0E0EF74
:1011BA0008F0F4EF08F081ACE5EF08F0E7EF08F08B
:1011CA00F4EF08F01604D8A4EDEF08F0EFEF08F0FA
:1011DA00F4EF08F0000E166E000EBEEC13F0F2A645
:1011EA00F9EF08F0FBEF08F016EF09F0F2A000EFB4
:1011FA0009F002EF09F016EF09F081BC07EF09F0D8
:10120A0009EF09F016EF09F01650D8A40FEF09F00C
:10121A0011EF09F016EF09F0010E166E010EBEEC81
:10122A0013F0F2A61BEF09F01DEF09F038EF09F0F1
:10123A00F2A022EF09F024EF09F038EF09F081AEAD
:10124A0029EF09F02BEF09F038EF09F01504D8A4BB
:10125A0031EF09F033EF09F038EF09F0000E156E9F
:10126A00000EB1EC13F0F2A63DEF09F03FEF09F0E2
:10127A005AEF09F0F2A044EF09F046EF09F05AEFED
:10128A0009F081BE4BEF09F04DEF09F05AEF09F072
:10129A001550D8A453EF09F055EF09F05AEF09F0A9
:1012AA00010E156E010EB1EC13F038C0FBFF37C00A
:1012BA00FAFF7C921100E5EC13F076EC11F0340E93
:1012CA00416EF9EC10F00001B36F2A0E416EF9EC91
:1012DA0010F00001B36F050E7B6E7B50D8A478EF37
:1012EA0009F07AEF09F07CEF09F093EF09F0200E8C
:1012FA00416E7BC042F0C8EC0EF00001B36F0A0EDB
:10130A00606E220E5F6EA10EE82EFED75F2EFCD70E
:10131A00602EFAD700007B0672EF09F0200E416EAC
:10132A00000E426EC8EC0EF00001B36FA4EC13F08D
:10133A00000E7B6E130E7B64A5EF09F0A7EF09F090
:10134A00A9EF09F0C5EF09F0320E3F6E1AEC13F05F
:10135A000001B36F2C0E3F6E1AEC13F00001B36F4D
:10136A0086EC0BF0030E606E8A0E5F6E560EE82E48
:10137A00FED75F2EFCD7602EFAD77B2A9FEF09F0A3
:10138A00340E416E23EC11F00001B36F2A0E416E48
:10139A0023EC11F00001B36F320E416E23EC11F011
:1013AA000001B36F2C0E416E23EC11F00001B36FF4
:1013BA004DEC11F0300E416EF9EC10F00001B36FF4
:1013CA002E0E416EF9EC10F00001B36F050E7B6E24
:1013DA007B50D8A4F3EF09F0F5EF09F0F7EF09F025
:1013EA0010EF0AF086EC0BF0250E416E7BC042F03E
:1013FA00C8EC0EF00001B36F0A0E606E220E5F6E2B
:10140A00A10EE82EFED75F2EFCD7602EFAD7000079
:10141A007B06EDEF09F0250E416E000E426EC8EC18
:10142A000EF00001B36F97EC13F0000E7B6E130EF3
:10143A007B6422EF0AF024EF0AF026EF0AF042EF6B
:10144A000AF0320E3F6E1AEC13F00001B36F2C0E45
:10145A003F6E1AEC13F00001B36F86EC0BF0030E2B
:10146A00606E8A0E5F6E560EE82EFED75F2EFCD790
:10147A00602EFAD77B2A1CEF0AF0300E416E23EC5D
:10148A0011F00001B36F2E0E416E23EC11F0000132
:10149A00B36F62EF09F007EF00F03950D8B458EF94
:1014AA000AF05AEF0AF072EF0AF03950D96EDA6A86
:1014BA00DF30E832E832070B3B6E080E3B6068EF1C
:1014CA000AF06AEF0AF072EF0AF0010E3A6470EF5E
:1014DA000AF072EF0AF0CBEF0AF0000E406EEAEF64
:1014EA000AF03950D96EDA6ADF30E832E832070B8F
:1014FA003B6E010E3C6E3B2A85EF0AF0D8903C36D3
:10150A003B2E83EF0AF03C50FF0A3D6E3950D96EEC
:10151A00DA6ADF50070B020DF350010FD96EDA6A4F
:10152A00DECF3EF0DDCF3FF03EC0D9FF3FC0DAFF4D
:10153A003D50DF16E0EF0AF03950D96EDA6ADF3033
:10154A00E832E832070B3B6E010E3C6E3B2AB0EFE5
:10155A000AF0D8903C363B2EAEEF0AF03950D96EDD
:10156A00DA6ADF50070B020DF350010FD96EDA6AFF
:10157A00DECF3DF0DDCF3EF03DC0D9FF3EC0DAFF01
:10158A003C50DF12E0EF0AF0E0EF0AF03A503B6E0F
:10159A003C6A3C50000AD8B4D5EF0AF0C9EF0AF009
:1015AA003B50000AD8B476EF0AF0010AD8B4A1EF8A
:1015BA000AF0C9EF0AF03950D96EDA6A3AB002D0A5
:1015CA00DF9E01D0DF8E010E406E4050120039506E
:1015DA00D8B4F2EF0AF0F4EF0AF00CEF0BF039503E
:1015EA00D96EDA6ADF30E832E832070B3B6E080E52
:1015FA003B6002EF0BF004EF0BF00CEF0BF0010E67
:10160A003A640AEF0BF00CEF0BF065EF0BF0000EEB
:10161A00406E84EF0BF03950D96EDA6ADF30E83267
:10162A00E832070B3B6E010E3C6E3B2A1FEF0BF0B4
:10163A00D8903C363B2E1DEF0BF03C50FF0A3D6E16
:10164A003950D96EDA6ADF50070B020DF3500B0FCF
:10165A00D96EDA6ADECF3EF0DDCF3FF03EC0D9FF69
:10166A003FC0DAFF3D50DF167AEF0BF03950D96EE2
:10167A00DA6ADF30E832E832070B3B6E010E3C6E65
:10168A003B2A4AEF0BF0D8903C363B2E48EF0BF042
:10169A003950D96EDA6ADF50070B020DF3500B0F7F
:1016AA00D96EDA6ADECF3DF0DDCF3EF03DC0D9FF1C
:1016BA003EC0DAFF3C50DF127AEF0BF07AEF0BF004
:1016CA003A503B6E3C6A3C50000AD8B46FEF0BF0BC
:1016DA0063EF0BF03B50000AD8B410EF0BF0010A8D
:1016EA00D8B43BEF0BF063EF0BF03950D96EDA6ADE
:1016FA003AB002D0DF9C01D0DF8C010E406E405020
:10170A0012007704D8A48CEF0BF08EEF0BF0E3EF06
:10171A000BF0250E416E000E426EC8EC0EF0000171
:10172A00B36F97EC13F03AEC12F076EC11F0300E3E
:10173A00416E23EC11F00001B36F2E0E416E23ECC3
:10174A0011F00001B36F340E416EF9EC10F0000194
:10175A00B36F2A0E416EF9EC10F00001B36F050E5B
:10176A005DEC12F0200E416E000E426EC8EC0EF0D7
:10177A000001B36FA4EC13F03AEC12F0340E416E90
:10178A0023EC11F00001B36F2A0E416E23EC11F025
:10179A000001B36F4DEC11F02E0E416EF9EC10F012
:1017AA000001B36F300E416EF9EC10F00001B36F17
:1017BA00000E7B6E000E776E1CEF0CF0020E77188F
:1017CA00D8A4EAEF0BF0ECEF0BF01CEF0CF082AAB6
:1017DA00F1EF0BF0F3EF0BF01CEF0CF0320E416E51
:1017EA0023EC11F00001B36F2C0E416E23EC11F0C3
:1017FA000001B36F76EC11F0340E416EF9EC10F083
:10180A000001B36F2A0E416EF9EC10F00001B36FBC
:10181A00050E5DEC12F0200E416E000E426EC8EC11
:10182A000EF00001B36FA4EC13F0DDEF0BF0120021
:10183A003950D8A423EF0CF025EF0CF08BEF0CF005
:10184A00000E3C6EA9EF0CF03950D96EDA6A030E1D
:10185A00D926DE04D8A434EF0CF036EF0CF039EFB9
:10186A000CF0F18C47EF0CF03950D96EDA6A030E9E
:10187A00D926DF50D8A444EF0CF046EF0CF047EF1E
:10188A000CF0F19C010E3C6EA9EF0CF03950D96EA8
:10189A00DA6A030ED926DE04D8A456EF0CF058EF04
:1018AA000CF05BEF0CF0F18A47EF0CF03950D96E6F
:1018BA00DA6A030ED926DF50D8A466EF0CF068EF77
:1018CA000CF047EF0CF0F19A47EF0CF03950D96E53
:1018DA00DA6A030ED926DE04D8A476EF0CF078EF84
:1018EA000CF07BEF0CF0F18847EF0CF03950D96E11
:1018FA00DA6A030ED926DF50D8A486EF0CF088EFF7
:10190A000CF047EF0CF0F19847EF0CF03950D96E14
:10191A00DA6A040ED926DF503A6E3B6A3B50000A57
:10192A00D8B49AEF0CF025EF0CF03A50000AD8B46C
:10193A0029EF0CF0010AD8B44BEF0CF0030AD8B423
:10194A006BEF0CF025EF0CF03C501200000E4E6EBF
:10195A00000E516E4C50D8A4B5EF0CF0B7EF0CF056
:10196A00BBEF0CF0000E4F6E21EF0DF04C28416ECC
:10197A0072EC10F04E6E4CC041F072EC10F04E6EEC
:10198A00000E506ED0EF0CF04C505024020F416EF6
:10199A0072EC10F0502A030E5064D6EF0CF0D8EF18
:1019AA000CF0C9EF0CF0340E4D6EF20EE82EFED795
:1019BA004D2EFCD74CC047F0380E486E0EEC10F096
:1019CA000D0E4D6EFC0EE82EFED74D2EFCD74CC0E8
:1019DA0047F0380E486E0EEC10F0640EE82EFED773
:1019EA004CC047F0380E486E0EEC10F04CC047F071
:1019FA00010E486E0EEC10F04CC047F0020E486E15
:101A0A000EEC10F04CC047F0060E486E0EEC10F0CB
:101A1A004CC047F00C0E486E0EEC10F04CC047F06C
:101A2A00800E486E0EEC10F04CC047F0280E486E3F
:101A3A000EEC10F0010E4F6E4F5012003C50D8A41D
:101A4A0029EF0DF02BEF0DF053EF0DF0000E3F6E66
:101A5A0071EF0DF03C50D96EDA6ADECF39F0DDCF86
:101A6A003AF05AEC13F03F6E71EF0DF03C50D96E1C
:101A7A00DA6ADECF39F0DDCF3AF045EC13F03F6E8B
:101A8A0071EF0DF03C50D96EDA6ADECF39F0DDCF56
:101A9A003AF030EC13F03F6E71EF0DF03C50D96E16
:101AAA00DA6A040ED926DF503D6E3E6A3E50000ABD
:101ABA00D8B462EF0DF02BEF0DF03D50000AD8B408
:101ACA002FEF0DF0010AD8B43BEF0DF0030AD8B49A
:101ADA0047EF0DF02BEF0DF03F501200000E000102
:101AEA00B06F000EB16F5A50D8B47EEF0DF080EF90
:101AFA000DF090EF0DF0050E5B6086EF0DF088EFAC
:101B0A000DF090EF0DF0140E5C648EEF0DF090EF77
:101B1A000DF094EF0DF0000EB26FBFEF0DF05AC04A
:101B2A0047F05E50080DF350400F486E0EEC10F06F
:101B3A00000E786E5AC047F05D507824D96EDA6A82
:101B4A00DF50486EDBEC0FF0782A070E7864B0EFAE
:101B5A000DF0B2EF0DF09FEF0DF05AC053F05BC0DD
:101B6A0054F05CC055F05EC056F0A7EC0FF0010EC1
:101B7A000001B26FB2511200000E516E000E526E89
:101B8A004E06ECEF0DF04CC047F04E50800F486EF9
:101B9A000EEC10F009EF0EF04CC047F04E50C00F9B
:101BAA00486E0EEC10F009EF0EF04CC047F04E50A4
:101BBA00940F486E0EEC10F009EF0EF04CC047F08F
:101BCA004E50D40F486E0EEC10F009EF0EF04D5047
:101BDA004F6E506A5050000AD8B4F6EF0DF009EF74
:101BEA000EF04F50010AD8B4C8EF0DF0030AD8B46A
:101BFA00D1EF0DF0010AD8B4DAEF0DF0070AD8B424
:101C0A00E3EF0DF009EF0EF0000E12003950D8B4D0
:101C1A0011EF0EF013EF0EF023EF0EF03950D96EDC
:101C2A00DA6ADF30E832E832070B3A6E070E3A64B6
:101C3A0021EF0EF023EF0EF027EF0EF0000E3E6EAE
:101C4A004FEF0EF03950D96EDA6ADF30E832E832F7
:101C5A00070B3A6E010E3B6E3A2A36EF0EF0D89019
:101C6A003B363A2E34EF0EF03950D96EDA6ADF502D
:101C7A00070B020DF350010FD96EDA6ADECF3CF082
:101C8A00DDCF3DF03CC0D9FF3DC0DAFF3B50DF1A43
:101C9A00010E3E6E3E5012003950D8A457EF0EF096
:101CAA0059EF0EF06EEF0EF0000E3C6E8CEF0EF058
:101CBA00F28EF28CF288010E3C6E8CEF0EF0F28EF0
:101CCA00F28CF08660EF0EF0F28EF28CF08860EF04
:101CDA000EF03950D96EDA6A040ED926DF503A6E00
:101CEA003B6A3B50000AD8B47DEF0EF059EF0EF074
:101CFA003A50000AD8B45DEF0EF0010AD8B464EF86
:101D0A000EF0030AD8B469EF0EF059EF0EF03C500A
:101D1A001200000E576E000E586E5350D8B498EF4A
:101D2A000EF09AEF0EF0B2EF0EF05650D8B4A0EFC4
:101D3A000EF0A2EF0EF0B2EF0EF0050E5460A8EF0F
:101D4A000EF0AAEF0EF0B2EF0EF0280E5564B0EFC7
:101D5A000EF0B2EF0EF0B6EF0EF0000E596EC6EFAF
:101D6A000EF053C04CF054C04DF055C04EF0C1ECCB
:101D7A000DF053C04CF056C04DF001EC0FF0010EBF
:101D8A00596E59501200000E456E4150D8B4D0EF2A
:101D9A000EF0D2EF0EF0DAEF0EF0090E4264D8EF31
:101DAA000EF0DAEF0EF0DEEF0EF0000E466EFFEFE9
:101DBA000EF0000E796E41507924396E79C043F0E5
:101DCA0042C044F0432AECEF0EF0D8904432432E3E
:101DDA00EAEF0EF04450010B3A6E52EC0AF0792AFF
:101DEA00070E7964FBEF0EF0FDEF0EF0E0EF0EF058
:101DFA00010E466E46501200000E4E6E000E4F6ED9
:101E0A004C50D8B40BEF0FF00DEF0FF015EF0FF0A9
:101E1A004D50D8A413EF0FF015EF0FF026EF0FF087
:101E2A00000E506E37EF0FF04CC047F04DC0F6FF72
:101E3A00100EF76EF86A0800F5CF48F0DBEC0FF0E9
:101E4A004D2A4DC0F6FF100EF76EF86A0800F550DD
:101E5A000009D8A433EF0FF035EF0FF019EF0FF0A8
:101E6A00010E506E505012003950D8A43FEF0FF0B7
:101E7A0041EF0FF050EF0FF0000E3C6E6EEF0FF0D7
:101E8A00F298010E3C6E6EEF0FF0F09646EF0FF0EF
:101E9A00F09846EF0FF03950D96EDA6A040ED92657
:101EAA00DF503A6E3B6A3B50000AD8B45FEF0FF03E
:101EBA0041EF0FF03A50000AD8B445EF0FF0010A8B
:101ECA00D8B44AEF0FF0030AD8B44DEF0FF041EF40
:101EDA000FF03C5012003950D8A476EF0FF078EF8B
:101EEA000FF087EF0FF0000E3C6EA5EF0FF0F292A5
:101EFA00010E3C6EA5EF0FF0F2927DEF0FF0F29219
:101F0A007DEF0FF03950D96EDA6A040ED926DF5008
:101F1A003A6E3B6A3B50000AD8B496EF0FF078EF5E
:101F2A000FF03A50000AD8B47CEF0FF0010AD8B487
:101F3A0081EF0FF0030AD8B484EF0FF078EF0FF0B7
:101F4A003C501200000E576E000E586E5350D8B413
:101F5A00B1EF0FF0B3EF0FF0C3EF0FF0050E5460BF
:101F6A00B9EF0FF0BBEF0FF0C3EF0FF0140E55648B
:101F7A00C1EF0FF0C3EF0FF0C7EF0FF0000E596E6D
:101F8A00D9EF0FF053C04CF054C04DF055C04EF08D
:101F9A00C1EC0DF0586E53C047F056C048F0DBEC68
:101FAA000FF0586E010E596E59501200000E496E0C
:101FBA00000E4A6E4750D8A4E5EF0FF0E7EF0FF096
:101FCA00EBEF0FF0000E4B6E0CEF10F047C039F03C
:101FDA00010E3A6E52EC0AF047C041F048380F0B36
:101FEA00426EEFEC11F04A6E47C041F083EC13F0F9
:101FFA004A6E47C041F048C042F0EFEC11F04A6E19
:10200A0047C041F083EC13F04A6E010E4B6E4B5001
:10201A001200000E496E000E4A6E4750D8A418EFFF
:10202A0010F01AEF10F01EEF10F0000E4B6E3FEF9B
:10203A0010F047C039F0000E3A6E52EC0AF047C071
:10204A0041F048380F0B426EEFEC11F04A6E47C070
:10205A0041F083EC13F04A6E47C041F048C042F0A9
:10206A00EFEC11F04A6E47C041F083EC13F04A6E70
:10207A00010E4B6E4B50120082A446EF10F048EF4F
:10208A0010F05AEF10F082A64DEF10F04FEF10F05B
:10209A005AEF10F081A254EF10F056EF10F05AEFF9
:1020AA0010F0010E776E71EF10F082A05FEF10F062
:1020BA0061EF10F071EF10F082AA66EF10F068EF8E
:1020CA0010F071EF10F081B26DEF10F06FEF10F0B9
:1020DA0071EF10F0020E776E1200000E436E41503F
:1020EA00D8B47AEF10F07CEF10F08CEF10F041507A
:1020FA00D96EDA6ADF30E832E832070B426E070E31
:10210A0042648AEF10F08CEF10F090EF10F0000E9E
:10211A00446EA0EF10F041C039F0000E3A6EECECBC
:10212A000AF0436E41C039F0000E3A6E52EC0AF0E2
:10213A00436E010E446E445012004750D8A4A8EFD3
:10214A0010F0AAEF10F0AEEF10F0000E486ECCEFD0
:10215A0010F047C039F039EC0FF0486E47C039F03B
:10216A0070EC0FF0481247C039F01DEC0CF0481221
:10217A0047C045F06FEC13F0481247C03CF023EC1F
:10218A000DF0481247C039F051EC0EF04812485091
:10219A001200790EF66E250EF76E000EF86E00EE3E
:1021AA0080F010EE30F00900F5CFEEFFE550E15077
:1021BA00FAE1440EF66E250EF76E000EF86E00EE8A
:1021CA0001F010EE35F00900F5CFEEFFE550E150D1
:1021DA00FAE100EE61F01A0EEE6AE806FDE17C9083
:1021EA007C92000160EF09F0000E426E4150D8A4C3
:1021FA0001EF11F003EF11F007EF11F0000E436E3B
:10220A0021EF11F041C039F0010E3A6E52EC0AF09A
:10221A004150D96EDA6A010ED9264150E16EE26A5E
:10222A00E7BE1AEF11F01DEF11F0010E1EEF11F0CB
:10223A00000EDF6E010E436E43501200000E426E16
:10224A004150D8A42BEF11F02DEF11F031EF11F01E
:10225A00000E436E4BEF11F041C039F0000E3A6E9A
:10226A0052EC0AF04150D96EDA6A010ED926415071
:10227A00E16EE26AE7BE44EF11F047EF11F0010E9A
:10228A0048EF11F0000EDF6E010E436E435012004C
:10229A001A0E536E020E546E080E556E0A0E566EC4
:1022AA008EEC0EF00001B36F1A0E5A6E020E5B6EC0
:1022BA000C0E5C6EA20E5D6E000E5E6E73EC0DF07F
:1022CA000001B36F1A0E5A6E020E5B6E0D0E5C6E33
:1022DA009A0E5D6E010E5E6E73EC0DF00001B36F27
:1022EA0012001A0E536E020E546E080E556E010E2F
:1022FA00566E8EEC0EF00001B36F1A0E5A6E020E75
:10230A005B6E0C0E5C6E920E5D6E000E5E6E73EC72
:10231A000DF00001B36F1A0E5A6E020E5B6E0D0EAF
:10232A005C6E8A0E5D6E010E5E6E73EC0DF000013E
:10233A00B36F1200000E436E4150D8B4A7EF11F0EC
:10234A00A9EF11F0B9EF11F04150D96EDA6ADF3016
:10235A00E832E832070B426E070E4264B7EF11F01B
:10236A00B9EF11F0BDEF11F0000E446EC5EF11F098
:10237A0041C039F0010E3A6EECEC0AF0010E446EDF
:10238A0044501200000E466E4550D8A4CFEF11F00B
:10239A00D1EF11F0D5EF11F0000E476EEDEF11F00D
:1023AA0045C041F072EC10F04550D96EDA6A010E60
:1023BA00D9264550E16EE26AE7BEE6EF11F0E9EF91
:1023CA0011F0010EEAEF11F0000EDF6E010E476EFA
:1023DA0047501200000E456E000E466E0BEF12F0CB
:1023EA0041504624020F396E46C043F042C044F0C1
:1023FA00432A02EF12F0D8904432432E00EF12F033
:10240A004450010B3A6E52EC0AF0462A030E466417
:10241A0011EF12F013EF12F0F5EF11F04550120020
:10242A00340E456EC7EC11F0320E456EC7EC11F052
:10243A00300E456EC7EC11F02E0E456EC7EC11F04A
:10244A002C0E456EC7EC11F02A0E456EC7EC11F042
:10245A00200E456E80EC12F0250E456E80EC12F0CF
:10246A001A0E4C6EABEC0CF01200000E446E320EDB
:10247A003F6E1AEC13F00001B36F2C0E3F6E1AEC8C
:10248A0013F00001B36F030E436E8A0E426E560EAE
:10249A00E82EFED7422EFCD7432EFAD7442A130E33
:1024AA0044645AEF12F05CEF12F03CEF12F01200A3
:1024BA00496E49C04AF04A50D8A466EF12F068EF54
:1024CA0012F06AEF12F07FEF12F0200E416E4AC04E
:1024DA0042F0C8EC0EF00A0E486E220E476EA10EAC
:1024EA00E82EFED7472EFCD7482EFAD700004A0618
:1024FA0060EF12F01200000E466E4550D8A488EF25
:10250A0012F08AEF12F08EEF12F0000E476EA0EF73
:10251A0012F0000E7A6E45507A24416E72EC10F079
:10252A007A2A070E7A649CEF12F09EEF12F090EF6F
:10253A0012F0010E476E47501200890F8A0F8B0F57
:10254A008C0F8D0F920F930F940F950F960F010119
:10255A00010104293109111921232B333B00030BF3
:10256A00131B002A0022001A0012000A000200802F
:10257A000F810F820F830F840F080C1E1F1E0C0879
:10258A000000001F1F1F0000001F03051901011F83
:0F259A00001F10101314181F00822001010000F1
:1025AA00F09271507210D8B4DDEF12F0DFEF12F032
:1025BA00EBEF12F002D8EBEF12F00500FA6E715051
:1025CA00FD6E7250FE6EFF6AFA5012001200F09011
:1025DA0073507410D8B4F4EF12F0F6EF12F002EF61
:1025EA0013F002D802EF13F00500FA6E7350FD6E75
:1025FA007450FE6EFF6AFA5012001200F292755081
:10260A007610D8B40BEF13F00DEF13F019EF13F0A7
:10261A0002D819EF13F00500FA6E7550FD6E765068
:10262A00FE6EFF6AFA5012001200000E406E3F5012
:10263A00D8A422EF13F024EF13F028EF13F0000EC2
:10264A00416E2EEF13F03FC039F00BEC0EF0010E85
:10265A00416E4150120039503A10D8A437EF13F0A6
:10266A0039EF13F03DEF13F0000E3B6E43EF13F01A
:10267A0039C071F03AC072F0010E3B6E3B50120045
:10268A0039503A10D8A44CEF13F04EEF13F052EF32
:10269A0013F0000E3B6E58EF13F039C073F03AC0D6
:1026AA0074F0010E3B6E3B50120039503A10D8A418
:1026BA0061EF13F063EF13F067EF13F0000E3B6E58
:1026CA006DEF13F039C075F03AC076F0010E3B6E2B
:1026DA003B5012004550D8A475EF13F077EF13F072
:1026EA007BEF13F0000E466E81EF13F04550020F98
:1026FA00416E9FEC11F0466E46501200000E426E7B
:10270A004128396E010E3A6E52EC0AF0030EE82E99
:10271A00FED700004128396E000E3A6E52EC0AF0DC
:10272A00000E12001A0E536E020E546E080E556EEB
:10273A00130E566E8EEC0EF00001B36F12001A0ED5
:10274A00536E020E546E080E556E1C0E566E8EECAB
:10275A000EF00001B36F1200366EF2903650D8A414
:10276A00B9EF13F0BBEF13F0BDEF13F0BDEF13F0A9
:10277A001200366EF2903650D8A4C6EF13F0C8EFA6
:10278A0013F0CAEF13F0CAEF13F01200366EF2908C
:10279A003650D8A4D3EF13F0D5EF13F0D7EF13F0D8
:1027AA00D7EF13F01200366EF2903650D8A4E0EF4D
:1027BA0013F0E2EF13F0E4EF13F0E4EF13F012007A
:1027CA0015EC12F0AA0E476EA2EC10F00001B36FDE
:0227DA001200EB
:020000040030CA
:0E000000FF02091EFF8181FF0FC00FE00F40BD
:00000001FF
